{
  "_format": "hh-sol-artifact-1",
  "contractName": "NexpayMerchantAdd",
  "sourceName": "contracts/NexpayMerchantAdd.sol",
  "abi": [
    {
      "anonymous": false,
      "inputs": [
        {
          "indexed": true,
          "internalType": "address",
          "name": "merchant",
          "type": "address"
        },
        {
          "indexed": false,
          "internalType": "address",
          "name": "validatedAddress",
          "type": "address"
        }
      ],
      "name": "AddressValidated",
      "type": "event"
    },
    {
      "anonymous": false,
      "inputs": [
        {
          "indexed": true,
          "internalType": "address",
          "name": "merchant",
          "type": "address"
        },
        {
          "indexed": false,
          "internalType": "address[]",
          "name": "addresses",
          "type": "address[]"
        }
      ],
      "name": "AddressesUpdated",
      "type": "event"
    },
    {
      "anonymous": false,
      "inputs": [
        {
          "indexed": true,
          "internalType": "address",
          "name": "merchant",
          "type": "address"
        },
        {
          "indexed": false,
          "internalType": "address[]",
          "name": "addresses",
          "type": "address[]"
        }
      ],
      "name": "MerchantRegistered",
      "type": "event"
    },
    {
      "inputs": [],
      "name": "getAddresses",
      "outputs": [
        {
          "internalType": "address[]",
          "name": "",
          "type": "address[]"
        }
      ],
      "stateMutability": "view",
      "type": "function"
    },
    {
      "inputs": [
        {
          "internalType": "address[]",
          "name": "addresses",
          "type": "address[]"
        }
      ],
      "name": "registerMerchant",
      "outputs": [],
      "stateMutability": "nonpayable",
      "type": "function"
    },
    {
      "inputs": [
        {
          "internalType": "address[]",
          "name": "addresses",
          "type": "address[]"
        }
      ],
      "name": "updateAddresses",
      "outputs": [],
      "stateMutability": "nonpayable",
      "type": "function"
    },
    {
      "inputs": [
        {
          "internalType": "address",
          "name": "merchant",
          "type": "address"
        },
        {
          "internalType": "address",
          "name": "addressToValidate",
          "type": "address"
        }
      ],
      "name": "validateAddress",
      "outputs": [
        {
          "internalType": "bool",
          "name": "",
          "type": "bool"
        }
      ],
      "stateMutability": "nonpayable",
      "type": "function"
    }
  ],
  "bytecode": "0x608060405234801561001057600080fd5b50610da9806100206000396000f3fe608060405234801561001057600080fd5b506004361061004c5760003560e01c806349616d791461005157806374302881146100815780637fb3df381461009d578063a39fac12146100b9575b600080fd5b61006b600480360381019061006691906108a7565b6100d7565b6040516100789190610902565b60405180910390f35b61009b60048036038101906100969190610a76565b6102f8565b005b6100b760048036038101906100b29190610a76565b6104c4565b005b6100c1610638565b6040516100ce9190610b7d565b60405180910390f35b6000600160008473ffffffffffffffffffffffffffffffffffffffff1673ffffffffffffffffffffffffffffffffffffffff16815260200190815260200160002060009054906101000a900460ff16610165576040517f08c379a000000000000000000000000000000000000000000000000000000000815260040161015c90610bfc565b60405180910390fd5b60008060008573ffffffffffffffffffffffffffffffffffffffff1673ffffffffffffffffffffffffffffffffffffffff16815260200190815260200160002080548060200260200160405190810160405280929190818152602001828054801561022557602002820191906000526020600020905b8160009054906101000a900473ffffffffffffffffffffffffffffffffffffffff1673ffffffffffffffffffffffffffffffffffffffff16815260200190600101908083116101db575b5050505050905060005b81518110156102eb578373ffffffffffffffffffffffffffffffffffffffff1682828151811061026257610261610c1c565b5b602002602001015173ffffffffffffffffffffffffffffffffffffffff16036102de578473ffffffffffffffffffffffffffffffffffffffff167f96b923b6223105d116b6154f7a0f6ba5590b8b14211f49d0165ac75ae606302d856040516102cb9190610c5a565b60405180910390a26001925050506102f2565b808060010191505061022f565b5060009150505b92915050565b600160003373ffffffffffffffffffffffffffffffffffffffff1673ffffffffffffffffffffffffffffffffffffffff16815260200190815260200160002060009054906101000a900460ff1615610385576040517f08c379a000000000000000000000000000000000000000000000000000000000815260040161037c90610cc1565b60405180910390fd5b60008151116103c9576040517f08c379a00000000000000000000000000000000000000000000000000000000081526004016103c090610d53565b60405180910390fd5b806000803373ffffffffffffffffffffffffffffffffffffffff1673ffffffffffffffffffffffffffffffffffffffff168152602001908152602001600020908051906020019061041b92919061078e565b5060018060003373ffffffffffffffffffffffffffffffffffffffff1673ffffffffffffffffffffffffffffffffffffffff16815260200190815260200160002060006101000a81548160ff0219169083151502179055503373ffffffffffffffffffffffffffffffffffffffff167f027dabd4fd0346b5b87d2116bb61c91fc3c31d53aa0bc0c27a90378c0bf5195a826040516104b99190610b7d565b60405180910390a250565b600160003373ffffffffffffffffffffffffffffffffffffffff1673ffffffffffffffffffffffffffffffffffffffff16815260200190815260200160002060009054906101000a900460ff16610550576040517f08c379a000000000000000000000000000000000000000000000000000000000815260040161054790610bfc565b60405180910390fd5b6000815111610594576040517f08c379a000000000000000000000000000000000000000000000000000000000815260040161058b90610d53565b60405180910390fd5b806000803373ffffffffffffffffffffffffffffffffffffffff1673ffffffffffffffffffffffffffffffffffffffff16815260200190815260200160002090805190602001906105e692919061078e565b503373ffffffffffffffffffffffffffffffffffffffff167f783346520ec7754715493183ab31e36f377c80092723b7903919ed4e7c4e96858260405161062d9190610b7d565b60405180910390a250565b6060600160003373ffffffffffffffffffffffffffffffffffffffff1673ffffffffffffffffffffffffffffffffffffffff16815260200190815260200160002060009054906101000a900460ff166106c6576040517f08c379a00000000000000000000000000000000000000000000000000000000081526004016106bd90610bfc565b60405180910390fd5b6000803373ffffffffffffffffffffffffffffffffffffffff1673ffffffffffffffffffffffffffffffffffffffff16815260200190815260200160002080548060200260200160405190810160405280929190818152602001828054801561078457602002820191906000526020600020905b8160009054906101000a900473ffffffffffffffffffffffffffffffffffffffff1673ffffffffffffffffffffffffffffffffffffffff168152602001906001019080831161073a575b5050505050905090565b828054828255906000526020600020908101928215610807579160200282015b828111156108065782518260006101000a81548173ffffffffffffffffffffffffffffffffffffffff021916908373ffffffffffffffffffffffffffffffffffffffff160217905550916020019190600101906107ae565b5b5090506108149190610818565b5090565b5b80821115610831576000816000905550600101610819565b5090565b6000604051905090565b600080fd5b600080fd5b600073ffffffffffffffffffffffffffffffffffffffff82169050919050565b600061087482610849565b9050919050565b61088481610869565b811461088f57600080fd5b50565b6000813590506108a18161087b565b92915050565b600080604083850312156108be576108bd61083f565b5b60006108cc85828601610892565b92505060206108dd85828601610892565b9150509250929050565b60008115159050919050565b6108fc816108e7565b82525050565b600060208201905061091760008301846108f3565b92915050565b600080fd5b6000601f19601f8301169050919050565b7f4e487b7100000000000000000000000000000000000000000000000000000000600052604160045260246000fd5b61096b82610922565b810181811067ffffffffffffffff8211171561098a57610989610933565b5b80604052505050565b600061099d610835565b90506109a98282610962565b919050565b600067ffffffffffffffff8211156109c9576109c8610933565b5b602082029050602081019050919050565b600080fd5b60006109f26109ed846109ae565b610993565b90508083825260208201905060208402830185811115610a1557610a146109da565b5b835b81811015610a3e5780610a2a8882610892565b845260208401935050602081019050610a17565b5050509392505050565b600082601f830112610a5d57610a5c61091d565b5b8135610a6d8482602086016109df565b91505092915050565b600060208284031215610a8c57610a8b61083f565b5b600082013567ffffffffffffffff811115610aaa57610aa9610844565b5b610ab684828501610a48565b91505092915050565b600081519050919050565b600082825260208201905092915050565b6000819050602082019050919050565b610af481610869565b82525050565b6000610b068383610aeb565b60208301905092915050565b6000602082019050919050565b6000610b2a82610abf565b610b348185610aca565b9350610b3f83610adb565b8060005b83811015610b70578151610b578882610afa565b9750610b6283610b12565b925050600181019050610b43565b5085935050505092915050565b60006020820190508181036000830152610b978184610b1f565b905092915050565b600082825260208201905092915050565b7f4d65726368616e74206e6f742072656769737465726564000000000000000000600082015250565b6000610be6601783610b9f565b9150610bf182610bb0565b602082019050919050565b60006020820190508181036000830152610c1581610bd9565b9050919050565b7f4e487b7100000000000000000000000000000000000000000000000000000000600052603260045260246000fd5b610c5481610869565b82525050565b6000602082019050610c6f6000830184610c4b565b92915050565b7f4d65726368616e7420616c726561647920726567697374657265640000000000600082015250565b6000610cab601b83610b9f565b9150610cb682610c75565b602082019050919050565b60006020820190508181036000830152610cda81610c9e565b9050919050565b7f4d7573742070726f76696465206174206c65617374206f6e652061646472657360008201527f7300000000000000000000000000000000000000000000000000000000000000602082015250565b6000610d3d602183610b9f565b9150610d4882610ce1565b604082019050919050565b60006020820190508181036000830152610d6c81610d30565b905091905056fea26469706673582212209f4d83a8d4ef54bfc7dd4b8a98281e3c6e6583fdeb9645125dc913c4b153499f64736f6c63430008180033",
  "linkReferences": {},
  "deployedLinkReferences": {}
}