{
  "_format": "hh-sol-artifact-1",
  "contractName": "NexpayMerchantAdd",
  "sourceName": "contracts/NexpayMerchantAdd.sol",
  "abi": [
    {
      "anonymous": false,
      "inputs": [
        {
          "indexed": true,
          "internalType": "address",
          "name": "merchant",
          "type": "address"
        },
        {
          "indexed": false,
          "internalType": "address",
          "name": "validatedAddress",
          "type": "address"
        }
      ],
      "name": "AddressValidated",
      "type": "event"
    },
    {
      "anonymous": false,
      "inputs": [
        {
          "indexed": true,
          "internalType": "address",
          "name": "merchant",
          "type": "address"
        },
        {
          "indexed": false,
          "internalType": "address[]",
          "name": "addresses",
          "type": "address[]"
        }
      ],
      "name": "AddressesUpdated",
      "type": "event"
    },
    {
      "anonymous": false,
      "inputs": [
        {
          "indexed": true,
          "internalType": "address",
          "name": "merchant",
          "type": "address"
        },
        {
          "indexed": false,
          "internalType": "address[]",
          "name": "addresses",
          "type": "address[]"
        }
      ],
      "name": "MerchantRegistered",
      "type": "event"
    },
    {
      "inputs": [],
      "name": "getAddresses",
      "outputs": [
        {
          "internalType": "address[]",
          "name": "",
          "type": "address[]"
        }
      ],
      "stateMutability": "view",
      "type": "function"
    },
    {
      "inputs": [
        {
          "internalType": "address",
          "name": "",
          "type": "address"
        }
      ],
      "name": "isRegistered",
      "outputs": [
        {
          "internalType": "bool",
          "name": "",
          "type": "bool"
        }
      ],
      "stateMutability": "view",
      "type": "function"
    },
    {
      "inputs": [
        {
          "internalType": "address[]",
          "name": "addresses",
          "type": "address[]"
        }
      ],
      "name": "registerMerchant",
      "outputs": [],
      "stateMutability": "nonpayable",
      "type": "function"
    },
    {
      "inputs": [
        {
          "internalType": "address[]",
          "name": "addresses",
          "type": "address[]"
        }
      ],
      "name": "updateAddresses",
      "outputs": [],
      "stateMutability": "nonpayable",
      "type": "function"
    },
    {
      "inputs": [
        {
          "internalType": "address",
          "name": "merchant",
          "type": "address"
        },
        {
          "internalType": "address",
          "name": "addressToValidate",
          "type": "address"
        }
      ],
      "name": "validateAddress",
      "outputs": [
        {
          "internalType": "bool",
          "name": "",
          "type": "bool"
        }
      ],
      "stateMutability": "view",
      "type": "function"
    }
  ],
  "bytecode": "0x608060405234801561001057600080fd5b50610e24806100206000396000f3fe608060405234801561001057600080fd5b50600436106100575760003560e01c806349616d791461005c578063743028811461008c5780637fb3df38146100a8578063a39fac12146100c4578063c3c5a547146100e2575b600080fd5b6100766004803603810190610071919061091f565b610112565b604051610083919061097a565b60405180910390f35b6100a660048036038101906100a19190610aee565b6102e5565b005b6100c260048036038101906100bd9190610aee565b6104b1565b005b6100cc61066f565b6040516100d99190610bf5565b60405180910390f35b6100fc60048036038101906100f79190610c17565b6107c5565b604051610109919061097a565b60405180910390f35b6000600160008473ffffffffffffffffffffffffffffffffffffffff1673ffffffffffffffffffffffffffffffffffffffff16815260200190815260200160002060009054906101000a900460ff166101a0576040517f08c379a000000000000000000000000000000000000000000000000000000000815260040161019790610ca1565b60405180910390fd5b60008060008573ffffffffffffffffffffffffffffffffffffffff1673ffffffffffffffffffffffffffffffffffffffff16815260200190815260200160002080548060200260200160405190810160405280929190818152602001828054801561026057602002820191906000526020600020905b8160009054906101000a900473ffffffffffffffffffffffffffffffffffffffff1673ffffffffffffffffffffffffffffffffffffffff1681526020019060010190808311610216575b5050505050905060005b81518110156102d8578373ffffffffffffffffffffffffffffffffffffffff1682828151811061029d5761029c610cc1565b5b602002602001015173ffffffffffffffffffffffffffffffffffffffff16036102cb576001925050506102df565b808060010191505061026a565b5060009150505b92915050565b600160003373ffffffffffffffffffffffffffffffffffffffff1673ffffffffffffffffffffffffffffffffffffffff16815260200190815260200160002060009054906101000a900460ff1615610372576040517f08c379a000000000000000000000000000000000000000000000000000000000815260040161036990610d3c565b60405180910390fd5b60008151116103b6576040517f08c379a00000000000000000000000000000000000000000000000000000000081526004016103ad90610dce565b60405180910390fd5b806000803373ffffffffffffffffffffffffffffffffffffffff1673ffffffffffffffffffffffffffffffffffffffff16815260200190815260200160002090805190602001906104089291906107e5565b5060018060003373ffffffffffffffffffffffffffffffffffffffff1673ffffffffffffffffffffffffffffffffffffffff16815260200190815260200160002060006101000a81548160ff0219169083151502179055503373ffffffffffffffffffffffffffffffffffffffff167f027dabd4fd0346b5b87d2116bb61c91fc3c31d53aa0bc0c27a90378c0bf5195a826040516104a69190610bf5565b60405180910390a250565b600160003373ffffffffffffffffffffffffffffffffffffffff1673ffffffffffffffffffffffffffffffffffffffff16815260200190815260200160002060009054906101000a900460ff1661053d576040517f08c379a000000000000000000000000000000000000000000000000000000000815260040161053490610ca1565b60405180910390fd5b6000815111610581576040517f08c379a000000000000000000000000000000000000000000000000000000000815260040161057890610dce565b60405180910390fd5b6000803373ffffffffffffffffffffffffffffffffffffffff1673ffffffffffffffffffffffffffffffffffffffff16815260200190815260200160002060006105cb919061086f565b806000803373ffffffffffffffffffffffffffffffffffffffff1673ffffffffffffffffffffffffffffffffffffffff168152602001908152602001600020908051906020019061061d9291906107e5565b503373ffffffffffffffffffffffffffffffffffffffff167f783346520ec7754715493183ab31e36f377c80092723b7903919ed4e7c4e9685826040516106649190610bf5565b60405180910390a250565b6060600160003373ffffffffffffffffffffffffffffffffffffffff1673ffffffffffffffffffffffffffffffffffffffff16815260200190815260200160002060009054906101000a900460ff166106fd576040517f08c379a00000000000000000000000000000000000000000000000000000000081526004016106f490610ca1565b60405180910390fd5b6000803373ffffffffffffffffffffffffffffffffffffffff1673ffffffffffffffffffffffffffffffffffffffff1681526020019081526020016000208054806020026020016040519081016040528092919081815260200182805480156107bb57602002820191906000526020600020905b8160009054906101000a900473ffffffffffffffffffffffffffffffffffffffff1673ffffffffffffffffffffffffffffffffffffffff1681526020019060010190808311610771575b5050505050905090565b60016020528060005260406000206000915054906101000a900460ff1681565b82805482825590600052602060002090810192821561085e579160200282015b8281111561085d5782518260006101000a81548173ffffffffffffffffffffffffffffffffffffffff021916908373ffffffffffffffffffffffffffffffffffffffff16021790555091602001919060010190610805565b5b50905061086b9190610890565b5090565b508054600082559060005260206000209081019061088d9190610890565b50565b5b808211156108a9576000816000905550600101610891565b5090565b6000604051905090565b600080fd5b600080fd5b600073ffffffffffffffffffffffffffffffffffffffff82169050919050565b60006108ec826108c1565b9050919050565b6108fc816108e1565b811461090757600080fd5b50565b600081359050610919816108f3565b92915050565b60008060408385031215610936576109356108b7565b5b60006109448582860161090a565b92505060206109558582860161090a565b9150509250929050565b60008115159050919050565b6109748161095f565b82525050565b600060208201905061098f600083018461096b565b92915050565b600080fd5b6000601f19601f8301169050919050565b7f4e487b7100000000000000000000000000000000000000000000000000000000600052604160045260246000fd5b6109e38261099a565b810181811067ffffffffffffffff82111715610a0257610a016109ab565b5b80604052505050565b6000610a156108ad565b9050610a2182826109da565b919050565b600067ffffffffffffffff821115610a4157610a406109ab565b5b602082029050602081019050919050565b600080fd5b6000610a6a610a6584610a26565b610a0b565b90508083825260208201905060208402830185811115610a8d57610a8c610a52565b5b835b81811015610ab65780610aa2888261090a565b845260208401935050602081019050610a8f565b5050509392505050565b600082601f830112610ad557610ad4610995565b5b8135610ae5848260208601610a57565b91505092915050565b600060208284031215610b0457610b036108b7565b5b600082013567ffffffffffffffff811115610b2257610b216108bc565b5b610b2e84828501610ac0565b91505092915050565b600081519050919050565b600082825260208201905092915050565b6000819050602082019050919050565b610b6c816108e1565b82525050565b6000610b7e8383610b63565b60208301905092915050565b6000602082019050919050565b6000610ba282610b37565b610bac8185610b42565b9350610bb783610b53565b8060005b83811015610be8578151610bcf8882610b72565b9750610bda83610b8a565b925050600181019050610bbb565b5085935050505092915050565b60006020820190508181036000830152610c0f8184610b97565b905092915050565b600060208284031215610c2d57610c2c6108b7565b5b6000610c3b8482850161090a565b91505092915050565b600082825260208201905092915050565b7f4d65726368616e74206e6f742072656769737465726564000000000000000000600082015250565b6000610c8b601783610c44565b9150610c9682610c55565b602082019050919050565b60006020820190508181036000830152610cba81610c7e565b9050919050565b7f4e487b7100000000000000000000000000000000000000000000000000000000600052603260045260246000fd5b7f4d65726368616e7420616c726561647920726567697374657265640000000000600082015250565b6000610d26601b83610c44565b9150610d3182610cf0565b602082019050919050565b60006020820190508181036000830152610d5581610d19565b9050919050565b7f4d7573742070726f76696465206174206c65617374206f6e652061646472657360008201527f7300000000000000000000000000000000000000000000000000000000000000602082015250565b6000610db8602183610c44565b9150610dc382610d5c565b604082019050919050565b60006020820190508181036000830152610de781610dab565b905091905056fea26469706673582212205ae005c5b2a673f96a0d5f1b11c71b864b13e3840485fbd6e4a09acd00e1f13664736f6c63430008180033",
  "linkReferences": {},
  "deployedLinkReferences": {}
}